{
  "_format": "hh-sol-artifact-1",
  "contractName": "ReceiptNFT",
  "sourceName": "contracts/ReceiptNFT.sol",
  "abi": [
    {
      "inputs": [],
      "stateMutability": "nonpayable",
      "type": "constructor"
    },
    {
      "anonymous": false,
      "inputs": [
        {
          "indexed": true,
          "internalType": "address",
          "name": "owner",
          "type": "address"
        },
        {
          "indexed": true,
          "internalType": "address",
          "name": "approved",
          "type": "address"
        },
        {
          "indexed": true,
          "internalType": "uint256",
          "name": "tokenId",
          "type": "uint256"
        }
      ],
      "name": "Approval",
      "type": "event"
    },
    {
      "anonymous": false,
      "inputs": [
        {
          "indexed": true,
          "internalType": "address",
          "name": "owner",
          "type": "address"
        },
        {
          "indexed": true,
          "internalType": "address",
          "name": "operator",
          "type": "address"
        },
        {
          "indexed": false,
          "internalType": "bool",
          "name": "approved",
          "type": "bool"
        }
      ],
      "name": "ApprovalForAll",
      "type": "event"
    },
    {
      "anonymous": false,
      "inputs": [
        {
          "indexed": true,
          "internalType": "uint256",
          "name": "tokenId",
          "type": "uint256"
        }
      ],
      "name": "CreatedReceiptNFT",
      "type": "event"
    },
    {
      "anonymous": false,
      "inputs": [
        {
          "indexed": true,
          "internalType": "address",
          "name": "from",
          "type": "address"
        },
        {
          "indexed": true,
          "internalType": "address",
          "name": "to",
          "type": "address"
        },
        {
          "indexed": true,
          "internalType": "uint256",
          "name": "tokenId",
          "type": "uint256"
        }
      ],
      "name": "Transfer",
      "type": "event"
    },
    {
      "inputs": [
        {
          "internalType": "address",
          "name": "to",
          "type": "address"
        },
        {
          "internalType": "uint256",
          "name": "tokenId",
          "type": "uint256"
        }
      ],
      "name": "approve",
      "outputs": [],
      "stateMutability": "nonpayable",
      "type": "function"
    },
    {
      "inputs": [
        {
          "internalType": "address",
          "name": "owner",
          "type": "address"
        }
      ],
      "name": "balanceOf",
      "outputs": [
        {
          "internalType": "uint256",
          "name": "",
          "type": "uint256"
        }
      ],
      "stateMutability": "view",
      "type": "function"
    },
    {
      "inputs": [
        {
          "internalType": "string",
          "name": "_recipientName",
          "type": "string"
        },
        {
          "internalType": "address",
          "name": "_recipient",
          "type": "address"
        },
        {
          "components": [
            {
              "internalType": "uint32",
              "name": "houseNumber",
              "type": "uint32"
            },
            {
              "internalType": "string",
              "name": "streetName",
              "type": "string"
            },
            {
              "internalType": "uint32",
              "name": "zipcode",
              "type": "uint32"
            },
            {
              "internalType": "string",
              "name": "stateName",
              "type": "string"
            },
            {
              "internalType": "string",
              "name": "countryName",
              "type": "string"
            }
          ],
          "internalType": "struct ReceiptNFT.StreetAddress",
          "name": "_recipientAddress",
          "type": "tuple"
        },
        {
          "internalType": "string",
          "name": "_sellerName",
          "type": "string"
        },
        {
          "components": [
            {
              "internalType": "uint32",
              "name": "houseNumber",
              "type": "uint32"
            },
            {
              "internalType": "string",
              "name": "streetName",
              "type": "string"
            },
            {
              "internalType": "uint32",
              "name": "zipcode",
              "type": "uint32"
            },
            {
              "internalType": "string",
              "name": "stateName",
              "type": "string"
            },
            {
              "internalType": "string",
              "name": "countryName",
              "type": "string"
            }
          ],
          "internalType": "struct ReceiptNFT.StreetAddress",
          "name": "_sellerAddress",
          "type": "tuple"
        },
        {
          "components": [
            {
              "internalType": "uint8",
              "name": "day",
              "type": "uint8"
            },
            {
              "internalType": "uint8",
              "name": "month",
              "type": "uint8"
            },
            {
              "internalType": "uint16",
              "name": "year",
              "type": "uint16"
            }
          ],
          "internalType": "struct ReceiptNFT.Date",
          "name": "_date",
          "type": "tuple"
        },
        {
          "internalType": "string",
          "name": "_currency",
          "type": "string"
        },
        {
          "components": [
            {
              "internalType": "string",
              "name": "name",
              "type": "string"
            },
            {
              "internalType": "string",
              "name": "description",
              "type": "string"
            },
            {
              "internalType": "uint256",
              "name": "price",
              "type": "uint256"
            },
            {
              "internalType": "string",
              "name": "additionalChargeType",
              "type": "string"
            },
            {
              "internalType": "uint256",
              "name": "additionalCharge",
              "type": "uint256"
            },
            {
              "internalType": "string",
              "name": "countryOfOrigin",
              "type": "string"
            }
          ],
          "internalType": "struct ReceiptNFT.Item",
          "name": "_item",
          "type": "tuple"
        },
        {
          "internalType": "uint256",
          "name": "_rebate",
          "type": "uint256"
        }
      ],
      "name": "create",
      "outputs": [],
      "stateMutability": "nonpayable",
      "type": "function"
    },
    {
      "inputs": [
        {
          "internalType": "uint256",
          "name": "tokenId",
          "type": "uint256"
        }
      ],
      "name": "getApproved",
      "outputs": [
        {
          "internalType": "address",
          "name": "",
          "type": "address"
        }
      ],
      "stateMutability": "view",
      "type": "function"
    },
    {
      "inputs": [
        {
          "internalType": "uint256",
          "name": "_tokenId",
          "type": "uint256"
        }
      ],
      "name": "getReciept",
      "outputs": [
        {
          "components": [
            {
              "internalType": "string",
              "name": "recipientName",
              "type": "string"
            },
            {
              "internalType": "address",
              "name": "recipient",
              "type": "address"
            },
            {
              "components": [
                {
                  "internalType": "uint32",
                  "name": "houseNumber",
                  "type": "uint32"
                },
                {
                  "internalType": "string",
                  "name": "streetName",
                  "type": "string"
                },
                {
                  "internalType": "uint32",
                  "name": "zipcode",
                  "type": "uint32"
                },
                {
                  "internalType": "string",
                  "name": "stateName",
                  "type": "string"
                },
                {
                  "internalType": "string",
                  "name": "countryName",
                  "type": "string"
                }
              ],
              "internalType": "struct ReceiptNFT.StreetAddress",
              "name": "recipientAddress",
              "type": "tuple"
            },
            {
              "internalType": "string",
              "name": "sellerName",
              "type": "string"
            },
            {
              "internalType": "address",
              "name": "seller",
              "type": "address"
            },
            {
              "components": [
                {
                  "internalType": "uint32",
                  "name": "houseNumber",
                  "type": "uint32"
                },
                {
                  "internalType": "string",
                  "name": "streetName",
                  "type": "string"
                },
                {
                  "internalType": "uint32",
                  "name": "zipcode",
                  "type": "uint32"
                },
                {
                  "internalType": "string",
                  "name": "stateName",
                  "type": "string"
                },
                {
                  "internalType": "string",
                  "name": "countryName",
                  "type": "string"
                }
              ],
              "internalType": "struct ReceiptNFT.StreetAddress",
              "name": "sellerAddress",
              "type": "tuple"
            },
            {
              "components": [
                {
                  "internalType": "uint8",
                  "name": "day",
                  "type": "uint8"
                },
                {
                  "internalType": "uint8",
                  "name": "month",
                  "type": "uint8"
                },
                {
                  "internalType": "uint16",
                  "name": "year",
                  "type": "uint16"
                }
              ],
              "internalType": "struct ReceiptNFT.Date",
              "name": "date",
              "type": "tuple"
            },
            {
              "internalType": "string",
              "name": "currency",
              "type": "string"
            },
            {
              "components": [
                {
                  "internalType": "string",
                  "name": "name",
                  "type": "string"
                },
                {
                  "internalType": "string",
                  "name": "description",
                  "type": "string"
                },
                {
                  "internalType": "uint256",
                  "name": "price",
                  "type": "uint256"
                },
                {
                  "internalType": "string",
                  "name": "additionalChargeType",
                  "type": "string"
                },
                {
                  "internalType": "uint256",
                  "name": "additionalCharge",
                  "type": "uint256"
                },
                {
                  "internalType": "string",
                  "name": "countryOfOrigin",
                  "type": "string"
                }
              ],
              "internalType": "struct ReceiptNFT.Item",
              "name": "item",
              "type": "tuple"
            },
            {
              "internalType": "uint256",
              "name": "rebate",
              "type": "uint256"
            }
          ],
          "internalType": "struct ReceiptNFT.Reciept",
          "name": "",
          "type": "tuple"
        }
      ],
      "stateMutability": "view",
      "type": "function"
    },
    {
      "inputs": [
        {
          "internalType": "address",
          "name": "owner",
          "type": "address"
        },
        {
          "internalType": "address",
          "name": "operator",
          "type": "address"
        }
      ],
      "name": "isApprovedForAll",
      "outputs": [
        {
          "internalType": "bool",
          "name": "",
          "type": "bool"
        }
      ],
      "stateMutability": "view",
      "type": "function"
    },
    {
      "inputs": [],
      "name": "name",
      "outputs": [
        {
          "internalType": "string",
          "name": "",
          "type": "string"
        }
      ],
      "stateMutability": "view",
      "type": "function"
    },
    {
      "inputs": [
        {
          "internalType": "uint256",
          "name": "tokenId",
          "type": "uint256"
        }
      ],
      "name": "ownerOf",
      "outputs": [
        {
          "internalType": "address",
          "name": "",
          "type": "address"
        }
      ],
      "stateMutability": "view",
      "type": "function"
    },
    {
      "inputs": [
        {
          "internalType": "address",
          "name": "from",
          "type": "address"
        },
        {
          "internalType": "address",
          "name": "to",
          "type": "address"
        },
        {
          "internalType": "uint256",
          "name": "tokenId",
          "type": "uint256"
        }
      ],
      "name": "safeTransferFrom",
      "outputs": [],
      "stateMutability": "nonpayable",
      "type": "function"
    },
    {
      "inputs": [
        {
          "internalType": "address",
          "name": "from",
          "type": "address"
        },
        {
          "internalType": "address",
          "name": "to",
          "type": "address"
        },
        {
          "internalType": "uint256",
          "name": "tokenId",
          "type": "uint256"
        },
        {
          "internalType": "bytes",
          "name": "_data",
          "type": "bytes"
        }
      ],
      "name": "safeTransferFrom",
      "outputs": [],
      "stateMutability": "nonpayable",
      "type": "function"
    },
    {
      "inputs": [
        {
          "internalType": "address",
          "name": "operator",
          "type": "address"
        },
        {
          "internalType": "bool",
          "name": "approved",
          "type": "bool"
        }
      ],
      "name": "setApprovalForAll",
      "outputs": [],
      "stateMutability": "nonpayable",
      "type": "function"
    },
    {
      "inputs": [
        {
          "internalType": "bytes4",
          "name": "interfaceId",
          "type": "bytes4"
        }
      ],
      "name": "supportsInterface",
      "outputs": [
        {
          "internalType": "bool",
          "name": "",
          "type": "bool"
        }
      ],
      "stateMutability": "view",
      "type": "function"
    },
    {
      "inputs": [],
      "name": "symbol",
      "outputs": [
        {
          "internalType": "string",
          "name": "",
          "type": "string"
        }
      ],
      "stateMutability": "view",
      "type": "function"
    },
    {
      "inputs": [],
      "name": "tokenCounter",
      "outputs": [
        {
          "internalType": "uint256",
          "name": "",
          "type": "uint256"
        }
      ],
      "stateMutability": "view",
      "type": "function"
    },
    {
      "inputs": [
        {
          "internalType": "uint256",
          "name": "tokenId",
          "type": "uint256"
        }
      ],
      "name": "tokenURI",
      "outputs": [
        {
          "internalType": "string",
          "name": "",
          "type": "string"
        }
      ],
      "stateMutability": "view",
      "type": "function"
    },
    {
      "inputs": [
        {
          "internalType": "address",
          "name": "from",
          "type": "address"
        },
        {
          "internalType": "address",
          "name": "to",
          "type": "address"
        },
        {
          "internalType": "uint256",
          "name": "tokenId",
          "type": "uint256"
        }
      ],
      "name": "transferFrom",
      "outputs": [],
      "stateMutability": "nonpayable",
      "type": "function"
    }
  ],
  "bytecode": "0x60806040523480156200001157600080fd5b506040518060400160405280600a81526020017f526563656970744e4654000000000000000000000000000000000000000000008152506040518060400160405280600481526020017f7263707400000000000000000000000000000000000000000000000000000000815250816000908051906020019062000096929190620000c0565b508060019080519060200190620000af929190620000c0565b5050506000600681905550620001d5565b828054620000ce9062000170565b90600052602060002090601f016020900481019282620000f257600085556200013e565b82601f106200010d57805160ff19168380011785556200013e565b828001600101855582156200013e579182015b828111156200013d57825182559160200191906001019062000120565b5b5090506200014d919062000151565b5090565b5b808211156200016c57600081600090555060010162000152565b5090565b600060028204905060018216806200018957607f821691505b60208210811415620001a0576200019f620001a6565b5b50919050565b7f4e487b7100000000000000000000000000000000000000000000000000000000600052602260045260246000fd5b6140db80620001e56000396000f3fe608060405234801561001057600080fd5b50600436106101005760003560e01c80636352211e11610097578063b88d4fde11610066578063b88d4fde146102bd578063c87b56dd146102d9578063d082e38114610309578063e985e9c51461032757610100565b80636352211e1461022357806370a082311461025357806395d89b4114610283578063a22cb465146102a157610100565b806323b872dd116100d357806323b872dd1461019f578063301f776e146101bb57806334e084ab146101eb57806342842e0e1461020757610100565b806301ffc9a71461010557806306fdde0314610135578063081812fc14610153578063095ea7b314610183575b600080fd5b61011f600480360381019061011a9190612d39565b610357565b60405161012c919061355a565b60405180910390f35b61013d610439565b60405161014a9190613575565b60405180910390f35b61016d60048036038101906101689190612ee3565b6104cb565b60405161017a91906134f3565b60405180910390f35b61019d60048036038101906101989190612cfd565b610550565b005b6101b960048036038101906101b49190612bf7565b610668565b005b6101d560048036038101906101d09190612ee3565b6106c8565b6040516101e29190613777565b60405180910390f35b61020560048036038101906102009190612d8b565b61117e565b005b610221600480360381019061021c9190612bf7565b6115c3565b005b61023d60048036038101906102389190612ee3565b6115e3565b60405161024a91906134f3565b60405180910390f35b61026d60048036038101906102689190612b92565b611695565b60405161027a9190613799565b60405180910390f35b61028b61174d565b6040516102989190613575565b60405180910390f35b6102bb60048036038101906102b69190612cc1565b6117df565b005b6102d760048036038101906102d29190612c46565b6117f5565b005b6102f360048036038101906102ee9190612ee3565b611857565b6040516103009190613575565b60405180910390f35b6103116118fe565b60405161031e9190613799565b60405180910390f35b610341600480360381019061033c9190612bbb565b611904565b60405161034e919061355a565b60405180910390f35b60007f80ac58cd000000000000000000000000000000000000000000000000000000007bffffffffffffffffffffffffffffffffffffffffffffffffffffffff1916827bffffffffffffffffffffffffffffffffffffffffffffffffffffffff1916148061042257507f5b5e139f000000000000000000000000000000000000000000000000000000007bffffffffffffffffffffffffffffffffffffffffffffffffffffffff1916827bffffffffffffffffffffffffffffffffffffffffffffffffffffffff1916145b80610432575061043182611998565b5b9050919050565b60606000805461044890613a2b565b80601f016020809104026020016040519081016040528092919081815260200182805461047490613a2b565b80156104c15780601f10610496576101008083540402835291602001916104c1565b820191906000526020600020905b8154815290600101906020018083116104a457829003601f168201915b5050505050905090565b60006104d682611a02565b610515576040517f08c379a000000000000000000000000000000000000000000000000000000000815260040161050c906136f7565b60405180910390fd5b6004600083815260200190815260200160002060009054906101000a900473ffffffffffffffffffffffffffffffffffffffff169050919050565b600061055b826115e3565b90508073ffffffffffffffffffffffffffffffffffffffff168373ffffffffffffffffffffffffffffffffffffffff1614156105cc576040517f08c379a00000000000000000000000000000000000000000000000000000000081526004016105c390613737565b60405180910390fd5b8073ffffffffffffffffffffffffffffffffffffffff166105eb611a6e565b73ffffffffffffffffffffffffffffffffffffffff16148061061a575061061981610614611a6e565b611904565b5b610659576040517f08c379a000000000000000000000000000000000000000000000000000000000815260040161065090613677565b60405180910390fd5b6106638383611a76565b505050565b610679610673611a6e565b82611b2f565b6106b8576040517f08c379a00000000000000000000000000000000000000000000000000000000081526004016106af90613757565b60405180910390fd5b6106c3838383611c0d565b505050565b6106d0612618565b816007600082815260200190815260200160002060010160009054906101000a900473ffffffffffffffffffffffffffffffffffffffff1673ffffffffffffffffffffffffffffffffffffffff163373ffffffffffffffffffffffffffffffffffffffff1614806107a257506007600082815260200190815260200160002060080160009054906101000a900473ffffffffffffffffffffffffffffffffffffffff1673ffffffffffffffffffffffffffffffffffffffff163373ffffffffffffffffffffffffffffffffffffffff16145b6107e1576040517f08c379a00000000000000000000000000000000000000000000000000000000081526004016107d890613637565b60405180910390fd5b600760008481526020019081526020016000206040518061014001604052908160008201805461081090613a2b565b80601f016020809104026020016040519081016040528092919081815260200182805461083c90613a2b565b80156108895780601f1061085e57610100808354040283529160200191610889565b820191906000526020600020905b81548152906001019060200180831161086c57829003601f168201915b505050505081526020016001820160009054906101000a900473ffffffffffffffffffffffffffffffffffffffff1673ffffffffffffffffffffffffffffffffffffffff1673ffffffffffffffffffffffffffffffffffffffff168152602001600282016040518060a00160405290816000820160009054906101000a900463ffffffff1663ffffffff1663ffffffff16815260200160018201805461092e90613a2b565b80601f016020809104026020016040519081016040528092919081815260200182805461095a90613a2b565b80156109a75780601f1061097c576101008083540402835291602001916109a7565b820191906000526020600020905b81548152906001019060200180831161098a57829003601f168201915b505050505081526020016002820160009054906101000a900463ffffffff1663ffffffff1663ffffffff1681526020016003820180546109e690613a2b565b80601f0160208091040260200160405190810160405280929190818152602001828054610a1290613a2b565b8015610a5f5780601f10610a3457610100808354040283529160200191610a5f565b820191906000526020600020905b815481529060010190602001808311610a4257829003601f168201915b50505050508152602001600482018054610a7890613a2b565b80601f0160208091040260200160405190810160405280929190818152602001828054610aa490613a2b565b8015610af15780601f10610ac657610100808354040283529160200191610af1565b820191906000526020600020905b815481529060010190602001808311610ad457829003601f168201915b5050505050815250508152602001600782018054610b0e90613a2b565b80601f0160208091040260200160405190810160405280929190818152602001828054610b3a90613a2b565b8015610b875780601f10610b5c57610100808354040283529160200191610b87565b820191906000526020600020905b815481529060010190602001808311610b6a57829003601f168201915b505050505081526020016008820160009054906101000a900473ffffffffffffffffffffffffffffffffffffffff1673ffffffffffffffffffffffffffffffffffffffff1673ffffffffffffffffffffffffffffffffffffffff168152602001600982016040518060a00160405290816000820160009054906101000a900463ffffffff1663ffffffff1663ffffffff168152602001600182018054610c2c90613a2b565b80601f0160208091040260200160405190810160405280929190818152602001828054610c5890613a2b565b8015610ca55780601f10610c7a57610100808354040283529160200191610ca5565b820191906000526020600020905b815481529060010190602001808311610c8857829003601f168201915b505050505081526020016002820160009054906101000a900463ffffffff1663ffffffff1663ffffffff168152602001600382018054610ce490613a2b565b80601f0160208091040260200160405190810160405280929190818152602001828054610d1090613a2b565b8015610d5d5780601f10610d3257610100808354040283529160200191610d5d565b820191906000526020600020905b815481529060010190602001808311610d4057829003601f168201915b50505050508152602001600482018054610d7690613a2b565b80601f0160208091040260200160405190810160405280929190818152602001828054610da290613a2b565b8015610def5780601f10610dc457610100808354040283529160200191610def565b820191906000526020600020905b815481529060010190602001808311610dd257829003601f168201915b5050505050815250508152602001600e82016040518060600160405290816000820160009054906101000a900460ff1660ff1660ff1681526020016000820160019054906101000a900460ff1660ff1660ff1681526020016000820160029054906101000a900461ffff1661ffff1661ffff16815250508152602001600f82018054610e7a90613a2b565b80601f0160208091040260200160405190810160405280929190818152602001828054610ea690613a2b565b8015610ef35780601f10610ec857610100808354040283529160200191610ef3565b820191906000526020600020905b815481529060010190602001808311610ed657829003601f168201915b50505050508152602001601082016040518060c0016040529081600082018054610f1c90613a2b565b80601f0160208091040260200160405190810160405280929190818152602001828054610f4890613a2b565b8015610f955780601f10610f6a57610100808354040283529160200191610f95565b820191906000526020600020905b815481529060010190602001808311610f7857829003601f168201915b50505050508152602001600182018054610fae90613a2b565b80601f0160208091040260200160405190810160405280929190818152602001828054610fda90613a2b565b80156110275780601f10610ffc57610100808354040283529160200191611027565b820191906000526020600020905b81548152906001019060200180831161100a57829003601f168201915b505050505081526020016002820154815260200160038201805461104a90613a2b565b80601f016020809104026020016040519081016040528092919081815260200182805461107690613a2b565b80156110c35780601f10611098576101008083540402835291602001916110c3565b820191906000526020600020905b8154815290600101906020018083116110a657829003601f168201915b50505050508152602001600482015481526020016005820180546110e690613a2b565b80601f016020809104026020016040519081016040528092919081815260200182805461111290613a2b565b801561115f5780601f106111345761010080835404028352916020019161115f565b820191906000526020600020905b81548152906001019060200180831161114257829003601f168201915b5050505050815250508152602001601682015481525050915050919050565b61118a88600654611e74565b600033905060006040518061014001604052808c81526020018b73ffffffffffffffffffffffffffffffffffffffff1681526020018a81526020018981526020018373ffffffffffffffffffffffffffffffffffffffff1681526020018881526020018781526020018681526020018581526020018481525090508060076000600654815260200190815260200160002060008201518160000190805190602001906112379291906126af565b5060208201518160010160006101000a81548173ffffffffffffffffffffffffffffffffffffffff021916908373ffffffffffffffffffffffffffffffffffffffff16021790555060408201518160020160008201518160000160006101000a81548163ffffffff021916908363ffffffff16021790555060208201518160010190805190602001906112cb9291906126af565b5060408201518160020160006101000a81548163ffffffff021916908363ffffffff160217905550606082015181600301908051906020019061130f9291906126af565b50608082015181600401908051906020019061132c9291906126af565b505050606082015181600701908051906020019061134b9291906126af565b5060808201518160080160006101000a81548173ffffffffffffffffffffffffffffffffffffffff021916908373ffffffffffffffffffffffffffffffffffffffff16021790555060a08201518160090160008201518160000160006101000a81548163ffffffff021916908363ffffffff16021790555060208201518160010190805190602001906113df9291906126af565b5060408201518160020160006101000a81548163ffffffff021916908363ffffffff16021790555060608201518160030190805190602001906114239291906126af565b5060808201518160040190805190602001906114409291906126af565b50505060c082015181600e0160008201518160000160006101000a81548160ff021916908360ff16021790555060208201518160000160016101000a81548160ff021916908360ff16021790555060408201518160000160026101000a81548161ffff021916908361ffff160217905550505060e082015181600f0190805190602001906114cf9291906126af565b506101008201518160100160008201518160000190805190602001906114f69291906126af565b5060208201518160010190805190602001906115139291906126af565b5060408201518160020155606082015181600301908051906020019061153a9291906126af565b506080820151816004015560a08201518160050190805190602001906115619291906126af565b50505061012082015181601601559050506006547fa78de6724db654dfed181d65f137c7b31cf22e064c574c3670586513a0910e3060405160405180910390a260016006546115b0919061388f565b6006819055505050505050505050505050565b6115de838383604051806020016040528060008152506117f5565b505050565b6000806002600084815260200190815260200160002060009054906101000a900473ffffffffffffffffffffffffffffffffffffffff169050600073ffffffffffffffffffffffffffffffffffffffff168173ffffffffffffffffffffffffffffffffffffffff16141561168c576040517f08c379a0000000000000000000000000000000000000000000000000000000008152600401611683906136b7565b60405180910390fd5b80915050919050565b60008073ffffffffffffffffffffffffffffffffffffffff168273ffffffffffffffffffffffffffffffffffffffff161415611706576040517f08c379a00000000000000000000000000000000000000000000000000000000081526004016116fd90613697565b60405180910390fd5b600360008373ffffffffffffffffffffffffffffffffffffffff1673ffffffffffffffffffffffffffffffffffffffff168152602001908152602001600020549050919050565b60606001805461175c90613a2b565b80601f016020809104026020016040519081016040528092919081815260200182805461178890613a2b565b80156117d55780601f106117aa576101008083540402835291602001916117d5565b820191906000526020600020905b8154815290600101906020018083116117b857829003601f168201915b5050505050905090565b6117f16117ea611a6e565b8383611e92565b5050565b611806611800611a6e565b83611b2f565b611845576040517f08c379a000000000000000000000000000000000000000000000000000000000815260040161183c90613757565b60405180910390fd5b61185184848484611fff565b50505050565b606061186282611a02565b6118a1576040517f08c379a000000000000000000000000000000000000000000000000000000000815260040161189890613717565b60405180910390fd5b60006118ab61205b565b905060008151116118cb57604051806020016040528060008152506118f6565b806118d584612072565b6040516020016118e69291906134cf565b6040516020818303038152906040525b915050919050565b60065481565b6000600560008473ffffffffffffffffffffffffffffffffffffffff1673ffffffffffffffffffffffffffffffffffffffff16815260200190815260200160002060008373ffffffffffffffffffffffffffffffffffffffff1673ffffffffffffffffffffffffffffffffffffffff16815260200190815260200160002060009054906101000a900460ff16905092915050565b60007f01ffc9a7000000000000000000000000000000000000000000000000000000007bffffffffffffffffffffffffffffffffffffffffffffffffffffffff1916827bffffffffffffffffffffffffffffffffffffffffffffffffffffffff1916149050919050565b60008073ffffffffffffffffffffffffffffffffffffffff166002600084815260200190815260200160002060009054906101000a900473ffffffffffffffffffffffffffffffffffffffff1673ffffffffffffffffffffffffffffffffffffffff1614159050919050565b600033905090565b816004600083815260200190815260200160002060006101000a81548173ffffffffffffffffffffffffffffffffffffffff021916908373ffffffffffffffffffffffffffffffffffffffff160217905550808273ffffffffffffffffffffffffffffffffffffffff16611ae9836115e3565b73ffffffffffffffffffffffffffffffffffffffff167f8c5be1e5ebec7d5bd14f71427d1e84f3dd0314c0f7b2291e5b200ac8c7c3b92560405160405180910390a45050565b6000611b3a82611a02565b611b79576040517f08c379a0000000000000000000000000000000000000000000000000000000008152600401611b7090613657565b60405180910390fd5b6000611b84836115e3565b90508073ffffffffffffffffffffffffffffffffffffffff168473ffffffffffffffffffffffffffffffffffffffff161480611bf357508373ffffffffffffffffffffffffffffffffffffffff16611bdb846104cb565b73ffffffffffffffffffffffffffffffffffffffff16145b80611c045750611c038185611904565b5b91505092915050565b8273ffffffffffffffffffffffffffffffffffffffff16611c2d826115e3565b73ffffffffffffffffffffffffffffffffffffffff1614611c83576040517f08c379a0000000000000000000000000000000000000000000000000000000008152600401611c7a906135b7565b60405180910390fd5b600073ffffffffffffffffffffffffffffffffffffffff168273ffffffffffffffffffffffffffffffffffffffff161415611cf3576040517f08c379a0000000000000000000000000000000000000000000000000000000008152600401611cea906135f7565b60405180910390fd5b611cfe83838361221f565b611d09600082611a76565b6001600360008573ffffffffffffffffffffffffffffffffffffffff1673ffffffffffffffffffffffffffffffffffffffff1681526020019081526020016000206000828254611d599190613916565b925050819055506001600360008473ffffffffffffffffffffffffffffffffffffffff1673ffffffffffffffffffffffffffffffffffffffff1681526020019081526020016000206000828254611db0919061388f565b92505081905550816002600083815260200190815260200160002060006101000a81548173ffffffffffffffffffffffffffffffffffffffff021916908373ffffffffffffffffffffffffffffffffffffffff160217905550808273ffffffffffffffffffffffffffffffffffffffff168473ffffffffffffffffffffffffffffffffffffffff167fddf252ad1be2c89b69c2b068fc378daa952ba7f163c4a11628f55a4df523b3ef60405160405180910390a4611e6f838383612224565b505050565b611e8e828260405180602001604052806000815250612229565b5050565b8173ffffffffffffffffffffffffffffffffffffffff168373ffffffffffffffffffffffffffffffffffffffff161415611f01576040517f08c379a0000000000000000000000000000000000000000000000000000000008152600401611ef890613617565b60405180910390fd5b80600560008573ffffffffffffffffffffffffffffffffffffffff1673ffffffffffffffffffffffffffffffffffffffff16815260200190815260200160002060008473ffffffffffffffffffffffffffffffffffffffff1673ffffffffffffffffffffffffffffffffffffffff16815260200190815260200160002060006101000a81548160ff0219169083151502179055508173ffffffffffffffffffffffffffffffffffffffff168373ffffffffffffffffffffffffffffffffffffffff167f17307eab39ab6107e8899845ad3d59bd9653f200f220920489ca2b5937696c3183604051611ff2919061355a565b60405180910390a3505050565b61200a848484611c0d565b61201684848484612284565b612055576040517f08c379a000000000000000000000000000000000000000000000000000000000815260040161204c90613597565b60405180910390fd5b50505050565b606060405180602001604052806000815250905090565b606060008214156120ba576040518060400160405280600181526020017f3000000000000000000000000000000000000000000000000000000000000000815250905061221a565b600082905060005b600082146120ec5780806120d590613a8e565b915050600a826120e591906138e5565b91506120c2565b60008167ffffffffffffffff81111561212e577f4e487b7100000000000000000000000000000000000000000000000000000000600052604160045260246000fd5b6040519080825280601f01601f1916602001820160405280156121605781602001600182028036833780820191505090505b5090505b60008514612213576001826121799190613916565b9150600a856121889190613ad7565b6030612194919061388f565b60f81b8183815181106121d0577f4e487b7100000000000000000000000000000000000000000000000000000000600052603260045260246000fd5b60200101907effffffffffffffffffffffffffffffffffffffffffffffffffffffffffffff1916908160001a905350600a8561220c91906138e5565b9450612164565b8093505050505b919050565b505050565b505050565b612233838361241b565b6122406000848484612284565b61227f576040517f08c379a000000000000000000000000000000000000000000000000000000000815260040161227690613597565b60405180910390fd5b505050565b60006122a58473ffffffffffffffffffffffffffffffffffffffff166125f5565b1561240e578373ffffffffffffffffffffffffffffffffffffffff1663150b7a026122ce611a6e565b8786866040518563ffffffff1660e01b81526004016122f0949392919061350e565b602060405180830381600087803b15801561230a57600080fd5b505af192505050801561233b57506040513d601f19601f820116820180604052508101906123389190612d62565b60015b6123be573d806000811461236b576040519150601f19603f3d011682016040523d82523d6000602084013e612370565b606091505b506000815114156123b6576040517f08c379a00000000000000000000000000000000000000000000000000000000081526004016123ad90613597565b60405180910390fd5b805181602001fd5b63150b7a0260e01b7bffffffffffffffffffffffffffffffffffffffffffffffffffffffff1916817bffffffffffffffffffffffffffffffffffffffffffffffffffffffff191614915050612413565b600190505b949350505050565b600073ffffffffffffffffffffffffffffffffffffffff168273ffffffffffffffffffffffffffffffffffffffff16141561248b576040517f08c379a0000000000000000000000000000000000000000000000000000000008152600401612482906136d7565b60405180910390fd5b61249481611a02565b156124d4576040517f08c379a00000000000000000000000000000000000000000000000000000000081526004016124cb906135d7565b60405180910390fd5b6124e06000838361221f565b6001600360008473ffffffffffffffffffffffffffffffffffffffff1673ffffffffffffffffffffffffffffffffffffffff1681526020019081526020016000206000828254612530919061388f565b92505081905550816002600083815260200190815260200160002060006101000a81548173ffffffffffffffffffffffffffffffffffffffff021916908373ffffffffffffffffffffffffffffffffffffffff160217905550808273ffffffffffffffffffffffffffffffffffffffff16600073ffffffffffffffffffffffffffffffffffffffff167fddf252ad1be2c89b69c2b068fc378daa952ba7f163c4a11628f55a4df523b3ef60405160405180910390a46125f160008383612224565b5050565b6000808273ffffffffffffffffffffffffffffffffffffffff163b119050919050565b60405180610140016040528060608152602001600073ffffffffffffffffffffffffffffffffffffffff168152602001612650612735565b815260200160608152602001600073ffffffffffffffffffffffffffffffffffffffff168152602001612681612735565b815260200161268e612770565b8152602001606081526020016126a261279b565b8152602001600081525090565b8280546126bb90613a2b565b90600052602060002090601f0160209004810192826126dd5760008555612724565b82601f106126f657805160ff1916838001178555612724565b82800160010185558215612724579182015b82811115612723578251825591602001919060010190612708565b5b50905061273191906127d1565b5090565b6040518060a00160405280600063ffffffff16815260200160608152602001600063ffffffff16815260200160608152602001606081525090565b6040518060600160405280600060ff168152602001600060ff168152602001600061ffff1681525090565b6040518060c001604052806060815260200160608152602001600081526020016060815260200160008152602001606081525090565b5b808211156127ea5760008160009055506001016127d2565b5090565b60006128016127fc846137d9565b6137b4565b90508281526020810184848401111561281957600080fd5b6128248482856139e9565b509392505050565b600061283f61283a8461380a565b6137b4565b90508281526020810184848401111561285757600080fd5b6128628482856139e9565b509392505050565b60008135905061287981614004565b92915050565b60008135905061288e8161401b565b92915050565b6000813590506128a381614032565b92915050565b6000815190506128b881614032565b92915050565b600082601f8301126128cf57600080fd5b81356128df8482602086016127ee565b91505092915050565b600082601f8301126128f957600080fd5b813561290984826020860161282c565b91505092915050565b60006060828403121561292457600080fd5b61292e60606137b4565b9050600061293e84828501612b7d565b600083015250602061295284828501612b7d565b602083015250604061296684828501612b3e565b60408301525092915050565b600060c0828403121561298457600080fd5b61298e60c06137b4565b9050600082013567ffffffffffffffff8111156129aa57600080fd5b6129b6848285016128e8565b600083015250602082013567ffffffffffffffff8111156129d657600080fd5b6129e2848285016128e8565b60208301525060406129f684828501612b53565b604083015250606082013567ffffffffffffffff811115612a1657600080fd5b612a22848285016128e8565b6060830152506080612a3684828501612b53565b60808301525060a082013567ffffffffffffffff811115612a5657600080fd5b612a62848285016128e8565b60a08301525092915050565b600060a08284031215612a8057600080fd5b612a8a60a06137b4565b90506000612a9a84828501612b68565b600083015250602082013567ffffffffffffffff811115612aba57600080fd5b612ac6848285016128e8565b6020830152506040612ada84828501612b68565b604083015250606082013567ffffffffffffffff811115612afa57600080fd5b612b06848285016128e8565b606083015250608082013567ffffffffffffffff811115612b2657600080fd5b612b32848285016128e8565b60808301525092915050565b600081359050612b4d81614049565b92915050565b600081359050612b6281614060565b92915050565b600081359050612b7781614077565b92915050565b600081359050612b8c8161408e565b92915050565b600060208284031215612ba457600080fd5b6000612bb28482850161286a565b91505092915050565b60008060408385031215612bce57600080fd5b6000612bdc8582860161286a565b9250506020612bed8582860161286a565b9150509250929050565b600080600060608486031215612c0c57600080fd5b6000612c1a8682870161286a565b9350506020612c2b8682870161286a565b9250506040612c3c86828701612b53565b9150509250925092565b60008060008060808587031215612c5c57600080fd5b6000612c6a8782880161286a565b9450506020612c7b8782880161286a565b9350506040612c8c87828801612b53565b925050606085013567ffffffffffffffff811115612ca957600080fd5b612cb5878288016128be565b91505092959194509250565b60008060408385031215612cd457600080fd5b6000612ce28582860161286a565b9250506020612cf38582860161287f565b9150509250929050565b60008060408385031215612d1057600080fd5b6000612d1e8582860161286a565b9250506020612d2f85828601612b53565b9150509250929050565b600060208284031215612d4b57600080fd5b6000612d5984828501612894565b91505092915050565b600060208284031215612d7457600080fd5b6000612d82848285016128a9565b91505092915050565b60008060008060008060008060006101608a8c031215612daa57600080fd5b60008a013567ffffffffffffffff811115612dc457600080fd5b612dd08c828d016128e8565b9950506020612de18c828d0161286a565b98505060408a013567ffffffffffffffff811115612dfe57600080fd5b612e0a8c828d01612a6e565b97505060608a013567ffffffffffffffff811115612e2757600080fd5b612e338c828d016128e8565b96505060808a013567ffffffffffffffff811115612e5057600080fd5b612e5c8c828d01612a6e565b95505060a0612e6d8c828d01612912565b9450506101008a013567ffffffffffffffff811115612e8b57600080fd5b612e978c828d016128e8565b9350506101208a013567ffffffffffffffff811115612eb557600080fd5b612ec18c828d01612972565b925050610140612ed38c828d01612b53565b9150509295985092959850929598565b600060208284031215612ef557600080fd5b6000612f0384828501612b53565b91505092915050565b612f158161394a565b82525050565b612f248161394a565b82525050565b612f338161395c565b82525050565b6000612f448261383b565b612f4e8185613851565b9350612f5e8185602086016139f8565b612f6781613bc4565b840191505092915050565b6000612f7d82613846565b612f878185613862565b9350612f978185602086016139f8565b612fa081613bc4565b840191505092915050565b6000612fb682613846565b612fc08185613873565b9350612fd08185602086016139f8565b612fd981613bc4565b840191505092915050565b6000612fef82613846565b612ff98185613884565b93506130098185602086016139f8565b80840191505092915050565b6000613022603283613873565b915061302d82613bd5565b604082019050919050565b6000613045602583613873565b915061305082613c24565b604082019050919050565b6000613068601c83613873565b915061307382613c73565b602082019050919050565b600061308b602483613873565b915061309682613c9c565b604082019050919050565b60006130ae601983613873565b91506130b982613ceb565b602082019050919050565b60006130d1602983613873565b91506130dc82613d14565b604082019050919050565b60006130f4602c83613873565b91506130ff82613d63565b604082019050919050565b6000613117603883613873565b915061312282613db2565b604082019050919050565b600061313a602a83613873565b915061314582613e01565b604082019050919050565b600061315d602983613873565b915061316882613e50565b604082019050919050565b6000613180602083613873565b915061318b82613e9f565b602082019050919050565b60006131a3602c83613873565b91506131ae82613ec8565b604082019050919050565b60006131c6602f83613873565b91506131d182613f17565b604082019050919050565b60006131e9602183613873565b91506131f482613f66565b604082019050919050565b600061320c603183613873565b915061321782613fb5565b604082019050919050565b60608201600082015161323860008501826134c0565b50602082015161324b60208501826134c0565b50604082015161325e6040850182613484565b50505050565b600060c08301600083015184820360008601526132818282612f72565b9150506020830151848203602086015261329b8282612f72565b91505060408301516132b06040860182613493565b50606083015184820360608601526132c88282612f72565b91505060808301516132dd6080860182613493565b5060a083015184820360a08601526132f58282612f72565b9150508091505092915050565b60006101808301600083015184820360008601526133208282612f72565b91505060208301516133356020860182612f0c565b506040830151848203604086015261334d8282613400565b915050606083015184820360608601526133678282612f72565b915050608083015161337c6080860182612f0c565b5060a083015184820360a08601526133948282613400565b91505060c08301516133a960c0860182613222565b5060e08301518482036101208601526133c28282612f72565b9150506101008301518482036101408601526133de8282613264565b9150506101208301516133f5610160860182613493565b508091505092915050565b600060a08301600083015161341860008601826134b1565b50602083015184820360208601526134308282612f72565b915050604083015161344560408601826134b1565b506060830151848203606086015261345d8282612f72565b915050608083015184820360808601526134778282612f72565b9150508091505092915050565b61348d81613994565b82525050565b61349c816139c2565b82525050565b6134ab816139c2565b82525050565b6134ba816139cc565b82525050565b6134c9816139dc565b82525050565b60006134db8285612fe4565b91506134e78284612fe4565b91508190509392505050565b60006020820190506135086000830184612f1b565b92915050565b60006080820190506135236000830187612f1b565b6135306020830186612f1b565b61353d60408301856134a2565b818103606083015261354f8184612f39565b905095945050505050565b600060208201905061356f6000830184612f2a565b92915050565b6000602082019050818103600083015261358f8184612fab565b905092915050565b600060208201905081810360008301526135b081613015565b9050919050565b600060208201905081810360008301526135d081613038565b9050919050565b600060208201905081810360008301526135f08161305b565b9050919050565b600060208201905081810360008301526136108161307e565b9050919050565b60006020820190508181036000830152613630816130a1565b9050919050565b60006020820190508181036000830152613650816130c4565b9050919050565b60006020820190508181036000830152613670816130e7565b9050919050565b600060208201905081810360008301526136908161310a565b9050919050565b600060208201905081810360008301526136b08161312d565b9050919050565b600060208201905081810360008301526136d081613150565b9050919050565b600060208201905081810360008301526136f081613173565b9050919050565b6000602082019050818103600083015261371081613196565b9050919050565b60006020820190508181036000830152613730816131b9565b9050919050565b60006020820190508181036000830152613750816131dc565b9050919050565b60006020820190508181036000830152613770816131ff565b9050919050565b600060208201905081810360008301526137918184613302565b905092915050565b60006020820190506137ae60008301846134a2565b92915050565b60006137be6137cf565b90506137ca8282613a5d565b919050565b6000604051905090565b600067ffffffffffffffff8211156137f4576137f3613b95565b5b6137fd82613bc4565b9050602081019050919050565b600067ffffffffffffffff82111561382557613824613b95565b5b61382e82613bc4565b9050602081019050919050565b600081519050919050565b600081519050919050565b600082825260208201905092915050565b600082825260208201905092915050565b600082825260208201905092915050565b600081905092915050565b600061389a826139c2565b91506138a5836139c2565b9250827fffffffffffffffffffffffffffffffffffffffffffffffffffffffffffffffff038211156138da576138d9613b08565b5b828201905092915050565b60006138f0826139c2565b91506138fb836139c2565b92508261390b5761390a613b37565b5b828204905092915050565b6000613921826139c2565b915061392c836139c2565b92508282101561393f5761393e613b08565b5b828203905092915050565b6000613955826139a2565b9050919050565b60008115159050919050565b60007fffffffff0000000000000000000000000000000000000000000000000000000082169050919050565b600061ffff82169050919050565b600073ffffffffffffffffffffffffffffffffffffffff82169050919050565b6000819050919050565b600063ffffffff82169050919050565b600060ff82169050919050565b82818337600083830152505050565b60005b83811015613a165780820151818401526020810190506139fb565b83811115613a25576000848401525b50505050565b60006002820490506001821680613a4357607f821691505b60208210811415613a5757613a56613b66565b5b50919050565b613a6682613bc4565b810181811067ffffffffffffffff82111715613a8557613a84613b95565b5b80604052505050565b6000613a99826139c2565b91507fffffffffffffffffffffffffffffffffffffffffffffffffffffffffffffffff821415613acc57613acb613b08565b5b600182019050919050565b6000613ae2826139c2565b9150613aed836139c2565b925082613afd57613afc613b37565b5b828206905092915050565b7f4e487b7100000000000000000000000000000000000000000000000000000000600052601160045260246000fd5b7f4e487b7100000000000000000000000000000000000000000000000000000000600052601260045260246000fd5b7f4e487b7100000000000000000000000000000000000000000000000000000000600052602260045260246000fd5b7f4e487b7100000000000000000000000000000000000000000000000000000000600052604160045260246000fd5b6000601f19601f8301169050919050565b7f4552433732313a207472616e7366657220746f206e6f6e20455243373231526560008201527f63656976657220696d706c656d656e7465720000000000000000000000000000602082015250565b7f4552433732313a207472616e736665722066726f6d20696e636f72726563742060008201527f6f776e6572000000000000000000000000000000000000000000000000000000602082015250565b7f4552433732313a20746f6b656e20616c7265616479206d696e74656400000000600082015250565b7f4552433732313a207472616e7366657220746f20746865207a65726f2061646460008201527f7265737300000000000000000000000000000000000000000000000000000000602082015250565b7f4552433732313a20617070726f766520746f2063616c6c657200000000000000600082015250565b7f4f6e6c79207265636965707420726563697069656e7420616e642073656c6c6560008201527f7220616c6c6f7765640000000000000000000000000000000000000000000000602082015250565b7f4552433732313a206f70657261746f7220717565727920666f72206e6f6e657860008201527f697374656e7420746f6b656e0000000000000000000000000000000000000000602082015250565b7f4552433732313a20617070726f76652063616c6c6572206973206e6f74206f7760008201527f6e6572206e6f7220617070726f76656420666f7220616c6c0000000000000000602082015250565b7f4552433732313a2062616c616e636520717565727920666f7220746865207a6560008201527f726f206164647265737300000000000000000000000000000000000000000000602082015250565b7f4552433732313a206f776e657220717565727920666f72206e6f6e657869737460008201527f656e7420746f6b656e0000000000000000000000000000000000000000000000602082015250565b7f4552433732313a206d696e7420746f20746865207a65726f2061646472657373600082015250565b7f4552433732313a20617070726f76656420717565727920666f72206e6f6e657860008201527f697374656e7420746f6b656e0000000000000000000000000000000000000000602082015250565b7f4552433732314d657461646174613a2055524920717565727920666f72206e6f60008201527f6e6578697374656e7420746f6b656e0000000000000000000000000000000000602082015250565b7f4552433732313a20617070726f76616c20746f2063757272656e74206f776e6560008201527f7200000000000000000000000000000000000000000000000000000000000000602082015250565b7f4552433732313a207472616e736665722063616c6c6572206973206e6f74206f60008201527f776e6572206e6f7220617070726f766564000000000000000000000000000000602082015250565b61400d8161394a565b811461401857600080fd5b50565b6140248161395c565b811461402f57600080fd5b50565b61403b81613968565b811461404657600080fd5b50565b61405281613994565b811461405d57600080fd5b50565b614069816139c2565b811461407457600080fd5b50565b614080816139cc565b811461408b57600080fd5b50565b614097816139dc565b81146140a257600080fd5b5056fea2646970667358221220129d935ca9ecec38b7ab2ddcf565f456cac32fcae35762dbf8cb4bc4904f63fb64736f6c63430008040033",
  "linkReferences": {},
  "deployedLinkReferences": {}
}